:020000040800F2
:10000000500D0020890100089101000893010008AB
:100010009501000897010008990100080000000000
:100020000000000000000000000000009B0100082C
:100030009D010008000000009F0100080D09000854
:10004000A3010008A3010008A3010008A301000800
:10005000A3010008A3010008A3010008A3010008F0
:10006000A3010008A3010008A3010008B1030008D0
:10007000A3010008A3010008A3010008A3010008D0
:10008000A3010008A3010008A3010008A3010008C0
:10009000A3010008A3010008A3010008A3010008B0
:1000A000A3010008A3010008A3010008A3010008A0
:1000B000A3010008A3010008A3010008A301000890
:1000C000A3010008A3010008A3010008A301000880
:1000D000A30100081D0A0008850A0008ED0A0008AF
:1000E000A3010008A3010008A301000800F002F822
:1000F00000F03AF80AA090E8000C82448344AAF188
:100100000107DA4501D100F02FF8AFF2090EBAE885
:100110000F0013F0010F18BFFB1A43F0010318473B
:10012000FC1600001C170000103A24BF78C878C1E4
:10013000FAD8520724BF30C830C144BF04680C60ED
:10014000704700000023002400250026103A28BF35
:1001500078C1FBD8520728BF30C148BF0B60704739
:100160001FB51FBD10B510BD00F064F81146FFF7B4
:10017000F7FF00F09FFE00F082F803B4FFF7F2FFF4
:1001800003BC00F085F80000094880470948004793
:10019000FEE7FEE7FEE7FEE7FEE7FEE7FEE7FEE737
:1001A000FEE7FEE704480549054A064B7047000094
:1001B000B5090008ED00000850070020500D002090
:1001C000500900205009002010B5431C02E010F82F
:1001D000011B71B18107FAD14FF0013202C88C1AAC
:1001E0008C4314EAC211F9D0C01A0A0603D0C01E0B
:1001F00010BDC01A10BD0A0401D0801E10BD090236
:10020000FCD0401E10BD70477047704710B500F01D
:1002100009F8006810BD10B5044600F003F804604A
:1002200010BD000000487047F006002000487047ED
:10023000F00600207546FFF7F9FFAE460500694657
:10024000534620F00700854618B020B5FFF7AAFFF7
:10025000BDE820404FF000064FF000074FF00008C7
:100260004FF0000B21F00701AC46ACE8C009ACE848
:10027000C009ACE8C009ACE8C0098D46704710B5AC
:100280000446AFF300802046BDE81040FFF775BF7D
:1002900001491820ABBEFEE72600020070470000AF
:1002A0003E48406840F400403C4948600846806948
:1002B00040F4007088613A48006840F00100384915
:1002C0000860081F006840F4C020091F0860084645
:1002D000006840F400600860081D006840F4801069
:1002E000091D08600846006840F4C0200860084600
:1002F000006840F4807008600846006840F008001C
:1003000008600846006840F00400086000BF244808
:10031000006800F004000028F9D121482C30006862
:1003200040F006001E492C3108601C48806940F0EE
:1003300004001A4988611B48006820F07060194960
:1003400008601648406940F00100144948611448AB
:10035000443015490861154848614120C860084685
:10036000806840F4A06088600846806840F08200A1
:1003700088600B20002809DB00F01F02012191405A
:100380004209920002F1E022C2F8001100BF0648C3
:10039000806840F001000449886070470010024006
:1003A000082401400008014000000240180000201D
:1003B00010B515480068401C1349086000F007FBA1
:1003C0001248806820F00100104988601048486198
:1003D0004120C8600846806840F001008860012024
:1003E0000C4908700848006841F27E71884206D9BD
:1003F000064880684FF6FE7108400449886003484B
:1004000000680249486010BD04000020000002405E
:1004100018000020000000200B4A1168126841F209
:1004200073739A4206D200BF074A1268521A824278
:10043000FAD307E000BF044A1268A2F5B852723A34
:10044000002AF8D1704700000800002010B50446CB
:100450000F48204448B1B0F5806F0AD0B0F5744F12
:100460000BD1252000F0E8F908E0262000F0E4F99F
:1004700004E0272000F0E0F900E000BF00BFA08901
:1004800040F04000A081A08940F02000A08110BD74
:1004900000BCFFBF2DE9F04F87B004468846CDF879
:1004A00018800120059003E00598401CC0B205901B
:1004B000069800EBD071C1F3470106910129F3D1F1
:1004C00000272DE0B9460026059D0FE0484609EBC0
:1004D000D0714910A9EB41016A1E91403144CEB25E
:1004E00009EBD071C1F34709681EC5B2002DEDDCE0
:1004F000B74213DA701C04EBC00103C9CDE9010156
:10050000701C04EBC001781C04EBC00205CA05C1D5
:10051000781C04EBC000DDE9011206C0781CC7B2EC
:10052000A8F10100B842CDDA4FF0010B58E059466E
:10053000022000F044FD00F0FF0A50460AEBD071A3
:1005400049100491012644E035463EE004982844D1
:10055000C0B20390701E80B200FB08F090FBFAF06E
:10056000C0B20090039804EBC003009AD3E90001E5
:1005700000F06CFC1D4903C9CDE9010154F83500B8
:10058000019901F045F80146039844F8301004EB56
:10059000C5020299506801F03BF80146039804EB4C
:1005A000C000416054F83500019900F0D3FE44F8D2
:1005B000350004EBC5020299506800F0CBFE04EB55
:1005C000C501486005EB0A00C5B24545BEDB701C9D
:1005D000C6B204988642B7DD0BF1010000F0FF0BB4
:1005E00005988345A3DD07B0BDE8F08F0C0000201F
:1005F000F0B504460D464C4FE61BBC421CD006DC51
:100600004A4E264456B1B6F5806F2AD10DE0B6F5B4
:10061000806F18D0B6F5006F23D11BE0444EB66949
:1006200046F00406424FBE611CE0414EB66946F0FA
:1006300008063F4FBE6115E03D4EB66946F0100614
:100640003B4FBE610EE03A4EB66946F02006384F89
:10065000BE6107E0364EB66946F04006344FBE61D3
:1006600000E000BF00BF082D03DAAE06310E2046C1
:1006700004E0A5F10806B606310E201D12B32A4E7D
:10068000B4420AD10D2D08D10F278F400668BE4312
:1006900002278F403E43066007E00F278F40066821
:1006A000BE4303278F403E4306602BB1E668012717
:1006B000AF403E43E66036E0E6680127AF40BE4308
:1006C000E66030E003268E400768B7430760012BE1
:1006D0000ED10C268E40076827EA060608278F40B1
:1006E0003E430660E7680126AE403743E7601AE004
:1006F00073B90C268E40076827EA060608278F4044
:100700003E430660E6680127AF403E43E6600AE0EC
:10071000022B08D10C268E40076827EA060604271C
:100720008F403E430660F0BD0010014000F8FEBF60
:100730000010024001F11002012393400361704751
:1007400001228A40026170478AB2C260704700008D
:1007500010B500240DE00023012221460F48FFF7C9
:1007600047FF0023012221460D48FFF741FF601C8F
:10077000C4B2102CEFDB002407E000230122214645
:100780000848FFF735FF601CC4B2042CF5DB0023DA
:10079000012209210448FFF72BFF10BD001401407E
:1007A0000018014000100140000C014010B5092163
:1007B0001B48FFF7C5FF002418E01A48008804EB27
:1007C0000012194830F812101848FFF7BDFFE1B2C7
:1007D0001748FFF7B5FF00BF00BF00BF00BF00BF55
:1007E000E1B21348FFF7A6FF601C84B2102CE4DBD3
:1007F0000C4801780F48C06861F303000D49C860D8
:1008000009210748FFF796FF06480088401C054964
:10081000088008460088102801DB0020088010BDF1
:10082000000C014014000020F004002000140140DE
:100830000018014000100140002809DB00F01F02F1
:10084000012191404209920002F1E022C2F8001118
:10085000704700002DE9F84F0024012406E0002035
:10086000284901EBC4014860601CC4B2412CF6DB8E
:1008700040212448FFF70EFE012423E0214A02EB29
:10088000C40251681F4A02EBC402506800F0F4FD34
:1008900082461C4A52F8341052F8340000F0ECFD45
:1008A0008346514600F056FD814600F027FD07467D
:1008B00000F092FB054600F0B5FB124941F8340008
:1008C000601CC4B2412CD9DB022417E00D4951F859
:1008D000340000F0A1FD0646102000234201194615
:1008E0000090304600F060FBC1B2254604EBD570A5
:1008F0004010401E044A1154A01CC4B2222CE5DB57
:10090000BDE8F88FD8000020E002002010B50448B0
:100910000068401C02490860FFF748FF10BD000056
:10092000080000202148006840F480301F4908601A
:1009300000BF1E48006800F400300028F9D01B48B2
:10094000406840F48030194948600846406820F407
:10095000701048600846406840F4E010486008465F
:10096000006840F08070086000BF1048006800F028
:1009700000700028F9D00D48406840F480600B49B1
:1009800048600B48006840F00200094908600748C9
:10099000406840F002000549486000BF03484068D5
:1009A00000F00C000828F9D1704700000010024048
:1009B0000020024000B5FFF7B5FF00BD4FF08040BA
:1009C000008840F001004FF08041088070474FF0F0
:1009D0008040008820F001004FF08041088070477F
:1009E0000D49C96941F001010B4AD16100EBC00119
:1009F000C900491E920491851146098B41F4F041CA
:100A000011831146898D891011871146098C41F097
:100A10001001118470470000001002401748008840
:100A200000F04000F0B11548008820F04000134964
:100A3000088013480089012810DD11480089401EF4
:100A40000F4908810846406800780C49091D088054
:100A50000B484068401C0A49486003E000200849F0
:100A6000088108700548008800F0200028B103487C
:100A7000008820F0200001490880704700380140BC
:100A80009C0000201748008800F04000F0B1154895
:100A9000008820F04000134908801348008901288D
:100AA00010DD11480089401E0F4908810846406842
:100AB00000780C49091D08800B484068401C0A4911
:100AC000486003E000200849088108700548008854
:100AD00000F0200028B10348008820F020000149E0
:100AE0000880704700440040B0000020174800888C
:100AF00000F04000F0B11548008820F04000134994
:100B0000088013480089012810DD11480089401E23
:100B10000F4908810846406800780C49091D088083
:100B20000B484068401C0A49486003E0002008491F
:100B3000088108700548008800F0200028B10348AB
:100B4000008820F0200001490880704700480040DC
:100B5000C40000200901584A0244B2B3B2F5806FC4
:100B600067D0B2F5744F7DD1544A926942F4804205
:100B7000524B9A61524AB2FBF1F301FB132212016C
:100B8000B2FBF1F24E4BB3FBF1F342EA03120281E6
:100B90004A4A926942F00402484B9A61494A1268F3
:100BA00022F47F6242F40B62464B1A60454A0832D7
:100BB000126842F48062434B08331A600022424BB1
:100BC0001A701A819A721A8267E0FFE73B4AD2696B
:100BD00042F40032394BDA613C4AB2FBF1F301FBDB
:100BE00013221201B2FBF1F2384BB3FBF1F342EAEC
:100BF00003120281314A926942F004022F4B9A613A
:100C0000304A121F126822F47F4242F40B422D4BED
:100C10001B1F1A602B4A0832126842F00802294B47
:100C200008331A6000222A4B1A701A819A721A82AB
:100C300033E0224AD26942F48022204BDA61234A0F
:100C4000B2FBF1F301FB13221201B2FBF1F21F4BD5
:100C5000B3FBF1F342EA03120281184A926942F0AF
:100C6000080200E018E0154B9A611A4A126822F453
:100C70007F4242F40B42174B1A60164A0832126840
:100C800042F40062134B08331A600022124B1A70B0
:100C90001A819A721A8200E000BF00BF828942F472
:100CA00000528281828942F008028281828942F068
:100CB000040282817047000000BCFFBF00100240A8
:100CC00000A24A04040801409C00002000512502B3
:100CD000B0000020040C0140C400002070B506469E
:100CE0000D4614463148304410B3B0F5806F3CD007
:100CF000B0F5744F56D100BF2D4800780028FBD1C5
:100D000001202B49087014B10846048104E02846EC
:100D1000FFF75AFA2649088125484560406800785F
:100D20002449088022484068401C214948603AE034
:100D300000BF214800780028FBD101201E4908701F
:100D400014B10846048104E02846FFF73DFA1A4929
:100D5000088119484560406800781849088016489D
:100D60004068401C144948601DE000BF14480078EA
:100D70000028FBD101201249087014B108460481F3
:100D800004E02846FFF720FA0D4908810C48456029
:100D9000406800780B49088009484068401C0849B1
:100DA000486000E000BF00BF70BD000000BCFFBF96
:100DB0009C00002004380140B000002004440040A2
:100DC000C40000200448004030B50146002005E082
:100DD00000231B4C24F81030431C98B2FF28F7DD89
:100DE00000201BE00B5C102B01DD102300E00B5CEE
:100DF0000B5400220DE01301114C34F81330114C48
:100E000034F81040234314010D4D25F81430531CC1
:100E10009AB20B5C9342EEDC431C98B21028E1DBE3
:100E2000002009E0064B33F81030DB439CB2064B40
:100E300023F81040431C98B2FF28F3DD30BD0000BA
:100E4000F0020020FC170008F0040020F7B514465B
:100E50006200521C154B53F82210019800F00CFB55
:100E600005466200114B53F82210009800F004FB75
:100E70000646294600F0CCFB0D49086062000B4B8A
:100E800053F82210019800F0F7FA05466200521C50
:100E9000064B53F82210009800F0EEFA0646294659
:100EA00000F058FA02494860FEBD0000FC16000838
:100EB0000C0000202E49481EB0F1807F00D31BE0BB
:100EC000481E4FF0E022506150170F22002804DB2B
:100ED00013071D0E274B1D5406E013071E0E264B4D
:100EE00000F00F052D1F5E5500BF00204FF0E022DF
:100EF00090610720106100BF4FF4E1311F48FFF7F8
:100F000029FE1E48FFF7A2FA00221DA11B48FFF789
:100F1000E5FEFFF7C5F9FFF71BFC1920FFF760FDA1
:100F2000FFF74CFD22E01C480078E0B100201A4990
:100F30000870002409E0194931F8140000F088FA1B
:100F4000174941F83400601C84B2412CF3DBFFF7F1
:100F500081FC1448FFF738FF102212490748FFF7B9
:100F6000BDFEFFF72BFD6420FFF756FADBE700001C
:100F70004019010000E400E018ED00E000380140F5
:100F800053797374656D2072756E20746F206D6176
:100F9000696E2E2E2E0D0A00000000201800002081
:100FA000D8000020E002002070B50446049D601ABD
:100FB000EE1A7043561A90FBF6F0184470BD10B547
:100FC00002460120002304E000FB02F4A0B25C1CF6
:100FD000E3B28B42F8DB10BD2DE9F04106460F4627
:100FE00000F0A6F8041E0D4618BF0120284320F08B
:100FF0000040C0F17F6000F1E040C00F0ED0301C17
:1010000018BF0120384320F00040C0F17F6000F19C
:10101000E040C00F04BF0120FFF7FDF8204629463D
:10102000BDE8F08121F00042A2F16052B2F5801FCC
:1010300001F0004328BFD2F17F6C0BD95FEA001C9E
:1010400043EAC20242EB507018BF704728BF20F03D
:1010500001007047B2F5801FBCBF184670474FEAC9
:10106000410C1CF5001F02D2084600F0CCBA70B546
:1010700000F009F800000089FFF7F6BF4FF00040CC
:10108000A0F5800070470EF1020E2EF0030E5EF800
:10109000046B364205D4012A43EB030515F5001F06
:1010A00012D8012841EB010C1CF5001F0CD80ED101
:1010B0004FEAD17C15F5001F0CEB4C0C0CF1020C27
:1010C00008BF4CEBD37C04E04FF0080C01E04FEA82
:1010D000D37C0CEB4C0526FA05F606F00706B6F1B4
:1010E000040C06D20EEB860CBDE870404CF0010CEF
:1010F0006047DFE80CF0090B02024FF000414FF0AF
:101100000000A1F5002170BD19461046012851EBE1
:10111000010418BFD4F5001484BF002001F0004181
:1011200070BD0808A0F500114FEA310170470000BA
:101130002DE9F04101F5801CBCF5001FC0F2C38011
:101140004FEA115C21EA0C510CF1FD0C41F48011C5
:101150005FEA5C0C0CF5C07C01D3400049413DA422
:10116000890241EA905187028E0E0A0CA45D04FBAD
:1011700004F602FB06F6C6F14046A4FB0662F60D35
:1011800046EA422606FB06F4A4FB01235242C3F1C1
:10119000404338BF5B1EA6FB02420024E6FB03244B
:1011A000D20B42EA4446A6FB0623A1FB02E2A3FBC4
:1011B00007E4A4184FF0000252F10002E3FB0142E1
:1011C0006442C2F1404E38BFAEF1010EA6FB0423CB
:1011D0004FF00002E6FB0E32A2FB03464FF0000484
:1011E000B61954F10004E2FB0264A1FB06E6A4FB7D
:1011F00007E816EB08064FF0000858F10008E4FB7A
:1012000001687642C8F1405838BFA8F10108A2FB36
:1012100006E4A3FB08E52D194FF0000454F1000487
:10122000E2FB0854A1FB05E6A7FB04E818EB06085F
:101230004FF0000656F10006E1FB048618F1200588
:1012400056F10006A809A8F11B08B10908F03F08EB
:10125000B8F10A0F40EA86601CD901EB0C51BDE8D9
:10126000F08100BFFCF5EEE8E2DDD8D3CFCBC7C3F9
:10127000C0BDB9B6B4B1AEACA9A7A5A3A19F9D9BB3
:101280009A9896959392908F8D8C8B898887868576
:1012900084838281A0FB006800FB01F208EB420816
:1012A000B8EB872807D5341858EB0104D5D5401C76
:1012B00051F10001D1E7341A78EB0104CDD4401E7E
:1012C00071F10001C9E75FEA4C0C5FEA9C5C0DD14B
:1012D00005D34FF0000001F00041BDE8F081BDE80A
:1012E000F04170B5FFF7CFFE6DDBFFBEBDE8F0410A
:1012F0004FF00000004970470000F87F43004FEABC
:10130000D30C4FEA3C0C43401FBF40070CF1605127
:1013100013F0FE4F70471CF0006F03D100200CF05B
:10132000004170470CF0004343EA507010B540EAAA
:10133000CC0000F022F900BF000000924FEA00014B
:10134000FFF7EFBE4FF000414FF00000A1F5002184
:101350007047000090EA010F48BF81F0004100F1A2
:101360005E81421A3CBF801A89184FEAD0524FF072
:101370007F4C1CEA410FA2EBD15318BF9CEA026FCD
:1013800000F03B804FF0004C4CEA00204CEA012179
:1013900021FA03FC10EB0C0C1ED202F1FF325FEAC3
:1013A0001C2040EBC25038BF70471CF07F0F4FEA43
:1013B000400C18BFBCF17F4F38BF7047C3F120030A
:1013C000994008BF20F00100BCF17F4F38BF704743
:1013D000A0F1C04000F017B94FEA3C00000A40EB12
:1013E000C25028BF1CF0FF0F4FEA400CE6D018BFD8
:1013F000BCF17F4F38BF7047EAE79CEA026F05D027
:1014000010EA5C0F08BF00F00040704710B500F014
:10141000B4F800BF64FBBE3E41000B0ED3F19E0248
:1014200008D950F400034FEA032323FA02F048BF1F
:101430004042704710B500F0A0F800BF49922480E8
:10144000002070476FF0004282EA200070470000E1
:10145000B0FA80F310FA03F2C3F19D030AD0D90564
:1014600001EB1220530638BF704700F1010008BF9E
:1014700020F00100704700004FF47F0C1CEAD012EE
:101480001EBF1CEAD11392EA0C0F93EA0C0F00F076
:10149000478090EA010F48BF42F480724FF0004C41
:1014A0004CEA00204CEA012102EB0302A0FB0113ED
:1014B000A2F50002002918BF43F001035B0028BF1A
:1014C0004FEA330342EB22425FEA132C4CEBC2504B
:1014D0002EBFBCEB436FB2F57C0F70474FEA036C35
:1014E000BCF1004F08BF20F00100B2F57C0F38BFFF
:1014F00070470BD582F0FF0212F5803FC8BF7047DE
:1015000000F1C040D8BF00F00040704700F5000C6B
:101510005FEA4C0C48BF7047B0F1C04000F073B8B0
:1015200090EA010F0CEAD11348BF42F48072624581
:1015300038BF634504D280EA010000F000407047E4
:1015400010B500F01AF800BF8900013E00F007B89E
:1015500000F009B85FEA410C5FEA1C6C08D080EA31
:10156000010000F050B85FEA400C5FEA1C6CF6D155
:101570004FF00040A0F5800070470EF1020E2EF0F3
:10158000030E5EF8044B244204D44FEA4102B2F148
:101590007F4F11D84FEA4003B3F17F4F0CD80ED1E3
:1015A0004FEAD07CB2F17F4F0CEB4C0C0CF1020CEB
:1015B00008BF4CEBD17C04E04FF0080C01E04FEA8F
:1015C000D17C0CEB4C0324FA03F404F00704B4F1CF
:1015D000040C06D20EEB840CBDE810404CF0010C5C
:1015E0006047DFE80CF0070802024FF00040A0F56A
:1015F000800010BD0846420018BFD2F1807288BF3B
:1016000000F0004010BDFF2141EAD050C0057047F6
:1016100090EA010F48BF81F000413FF5A2AE421AA7
:1016200004D882F00042A0EB020011444FEAD052ED
:101630004FF07F4C1CEA410FA2EBD15318BF9CEA3C
:10164000026F4AD04FF0004C4CEA00204CEA0121D6
:1016500021FA03FCB0EB0C0C0FD412F0FE0F36D0C5
:101660005FEA4C001DD5001240EBC25038BF7047F6
:101670001CF03F0F18BF70470BE0A2F101025FEAB8
:101680001C2040EBC25038BF70471CF07F0F18BFC2
:101690007047C3F12003994014BF401E20F00100A1
:1016A000704780084FEA122308BF7047B0FA80FCE9
:1016B000A2EB0C02CCF1280C60FA0CF093EA122F8A
:1016C00004BF00EBC25070474FEAC3707047130A63
:1016D0005FEADC1008BF7047F6E79CEA026F04D0AF
:1016E00010EA5C0F08BF0020704710B5FFF745FFF8
:1016F00040DFF63E81F00040704700000000803F70
:10170000000000006DC57E3F39B4C8BDB5157B3FF4
:101710004BC847BE66F7743F34A294BEB6846C3F94
:1017200041F1C3BE33C4613F575BF1BE2FDD543F6F
:10173000CD3B0EBF54E3453F0A6822BF8104353FCD
:10174000810435BF0A68223F54E345BFCD3B0E3FBD
:101750002FDD54BF575BF13E33C461BF41F1C33E3F
:10176000B6846CBF34A2943E66F774BF4BC8473E44
:10177000B5157BBF39B4C83D6DC57EBF0000000004
:10178000000080BF39B4C8BD6DC57EBF4BC847BE21
:10179000B5157BBF34A294BE66F7743F41F1C3BE5A
:1017A000B6846CBF575BF1BE33C461BFCD3B0EBF87
:1017B0002FDD54BF0A6822BF54E345BF810435BF03
:1017C000810435BF54E345BF0A6822BF2FDD54BFF3
:1017D000CD3B0EBF33C461BF575BF1BEB6846CBF57
:1017E00041F1C3BE66F774BF34A294BEB5157BBF8A
:1017F0004BC847BE6DC57EBF39B4C8BD0080004030
:1018000000200010000800040002000180004000D9
:101810002000100008000400020001003C1800082D
:1018200000000020180000002801000854180008DB
:1018300018000020380D00004401000800000000DE
:101840000000000000000000000000000000000098
:041850000000000094
:04000005080000ED02
:00000001FF
